:020000040800F2
:10000000405200206D02000873340008852C00085F
:1000100071340008D50C00085945000800000000A4
:10002000000000000000000000000000AD0100081A
:10003000291000080000000009020008FD3F000828
:10004000870200088702000887020008870200086C
:10005000870200088702000887020008870200085C
:10006000870200088702000887020008870200084C
:10007000870200088702000887020008870200083C
:1000800087020008870200088702000800000000BD
:1000900000000000000000000000000087020008CF
:1000A000870200088702000887020008870200080C
:1000B000B94000088702000887020008870200088C
:1000C00087020008870200088702000887020008EC
:1000D00087020008870200083D4400080000000075
:1000E000870200088702000887020008000000005D
:1000F000000000000000000000000000870200086F
:10010000000000008702000887020008870200083C
:1001100000000000000000000000000000000000DF
:10012000870200088702000887020008870200088B
:10013000870200080000000000000000000000002E
:10014000000000000000000000000000870200081E
:10015000870200088702000887020008870200085B
:10016000870200088702000800000000000000006D
:10017000000000000000000000000000000000007F
:1001800000000000870200080000000000000000DE
:100190008702000887020008DFF80CD000F07CFC22
:1001A00000480047C5600008405200202C4B1968E9
:1001B0000868B0E8F04F80F30988BFF36F8F4FF005
:1001C000000080F3118870470000000008480068B4
:1001D000006880F308884FF0000080F3148862B64E
:1001E00061B6BFF34F8FBFF36F8F00DF00BF00BF5B
:1001F00008ED00E0DFF80C00016841F470010160D7
:10020000704700BF88ED00E0EFF30980BFF36F8F08
:10021000134B1A681EF0100F08BF20ED108A20E95A
:10022000F04F106009B44FF0500080F31188BFF315
:100230004F8FBFF36F8F07F06DFE4FF0000080F31C
:10024000118809BC19680868B0E8F04F1EF0100F5B
:1002500008BFB0EC108A80F30988BFF36F8F704736
:100260008C000020EFF305807047000006488047AF
:1002700006480047FEE7FEE7FEE7FEE7FEE7FEE78B
:10028000FEE7FEE7FEE7FEE7A94000089901000847
:100290002DE9F05F0546002092469B4688460646BB
:1002A000814640241BE0284641464746224600F04E
:1002B0000CFB53465A46C01A914110D311461846BA
:1002C000224600F0F3FA2D1A67EB01084F4622464A
:1002D0000120002100F0EAFA17EB00094E41201E30
:1002E000A4F10104DFDC484631462A464346BDE816
:1002F000F09FA0F14101192900D82030704700007B
:10030000014610B509683C22B1FBF2F302FB13135E
:10031000B1FBF2F11D480360B1FBF2F302FB1313D2
:10032000B1FBF2F118224360B1FBF2F302FB1313AD
:10033000B1FBF2F183600A1D0723B2FBF3F403FB68
:10034000142282618A0040F2B55102F66C32B2FB8F
:10035000F1F344334361B2FBF1F301FB132189084C
:10036000C1613B2903D3027D920700D0491C0022C2
:10037000074C13460261E25C8A4203D8891A5B1C6F
:100380000361F8E7491CC16010BD0000144E002055
:10039000F8AD000840EA01039B0703D009E008C953
:1003A000121F08C0042AFAD203E011F8013B00F83A
:1003B000013B521EF9D27047D2B201E000F8012B86
:1003C000491EFBD270470022F6E710B513460A46D5
:1003D00004461946FFF7F0FF204610BDCAB2401E82
:1003E00010F8011F8A4202D00029F9D1002070477D
:1003F000421C10F8011B0029FBD1801A704710B570
:10040000002200E0521C835C8C5CA34201D1002BD3
:10041000F8D1D8B2E1B2401A10BD034611F8012B51
:1004200000F8012B002AF9D11846704730B505466F
:100430000020034600E05B1C934205D2EC5CC85CE4
:10044000201A01D1002CF6D130BD70B5064604F05B
:10045000EBF8046805460A220021304600F057FAFE
:100460002C6070BD2DE9FE4F804681EA0300C00F6D
:100470000C46009021F0004123F00045B8EB02004B
:10048000A94105D24046214690461C460B460246ED
:1004900023F00040104347D0270DC7F30A00C3F3F1
:1004A0000A510290401A019040286BDAC3F31300FE
:1004B00040F4801B0098924620B10023D2EB030A3F
:1004C00063EB0B0B01985946C0F14002504600F017
:1004D000EDF906460D4650465946019A00F005FAD8
:1004E00010EB08006141002487EA115284EAE773A7
:1004F0001A4340D0009A62B3019A012A4FEA075288
:1005000015DC001B61EB02014FF0004202EA0752CA
:10051000CDE90042001C41F5801132462B4600F027
:100520003DFA03B0BDE8F08F40462146F9E7001BD5
:1005300061EB0201001C41F5801300185B4120189B
:10054000A2F5001747EB030140EAD570B6196D41DB
:1005500011E06D084FEA360645EAC0754FEA0752CA
:10056000001B61EB0201001C41F5801149084FEAB4
:1005700030000019514132462B4603B0BDE8F04F20
:1005800000F0FDB90098012240000023D0EB0202E8
:1005900063EBE073009821464FEAE074B8EB00008B
:1005A00061EB0401E9E783F000435BE781F0004180
:1005B00058E72DE9FE4F81EA030404F0004421F0DE
:1005C000004100944FF0000B23F0004350EA010477
:1005D0005ED052EA03045BD0C3F30A54C1F30A5558
:1005E0002C44A4F2F3340194A0FB0254C1F3130190
:1005F00041F48011C3F3130343F4801301FB02445D
:1006000000FB034E840A970A44EA815447EA835761
:10061000A4FB076802958D0A05FB07854FEA932C1A
:1006200004FB0C542705029D4FEA065847EA16378B
:10063000B5EB08056EEB070C870E920E47EA8117A3
:1006400042EA8312A7FB0201B6EB0B0164EB000444
:100650002B0D43EA0C335E1844EB1C50DA4651462E
:10066000E7FB0201C5F313044FEA0B3343EA1453CB
:100670004FEA0432019C43EA0603A4F10C040294FD
:10068000009CCDE900B400F089F903B0BDE8F08F1B
:1006900000200146F9E72DE9F04D81EA030404F05A
:1006A000004B21F0004514464FF0000A23F00041B2
:1006B00050EA050220D054EA01021DD0C5F30A57C2
:1006C0000246C5F31303C1F31300C1F30A5640F405
:1006D000801543F48013A7EB0608101BD64608F2DA
:1006E000FD3873EB050002D308F1010801E0921810
:1006F0005B41B8F1000F03DA00200146BDE8F08D40
:1007000000204FF48011064684460EE0171B73EB61
:10071000050705D3121B63EB050306434CEA010CE6
:1007200049084FEA300092185B4150EA0107EDD1C9
:1007300052EA030012D082EA040083EA050108436A
:1007400005D0101BAB4106D20122002306E0002297
:100750004FF0004302E06FF0010253101AEB060065
:100760004CEB085110EB0A0041EB0B01BDE8F04DDA
:1007700000F005B90EB5C10F80EAE0700844CA0761
:10078000002140F233438DE80E000A460B4600F08C
:1007900005F903B000BD0EB540F2334102910021CE
:1007A000CDE900110A460B4600F0F8F803B000BD91
:1007B00070B5C1F30A5201F000450024C1F31301E2
:1007C00040F2FF3341F480119A4201DA002070BDFB
:1007D00040F233439A42A2F2334203DC524200F029
:1007E00074F800E090402C43F1D0404270BDC1F35A
:1007F0000A5210B5C1F3130140F2FF3341F48011E6
:100800009A4201DA002010BD40F233439A42A2F22C
:10081000334203DC524200F058F810BD904010BD46
:1008200030B5041E71F1000404DB4FF00044404277
:1008300064EB0101141E73F1000405DB1C464FF04C
:100840000043524263EB04038B4208BF824230BD37
:1008500030B5041E71F1000404DB4FF00044404247
:1008600064EB0101141E73F1000405DB1C464FF01C
:100870000043524263EB0403994208BF904230BDEB
:1008800030B50B46014600202022012409E021FA60
:1008900002F59D4205D303FA02F5491B04FA02F55D
:1008A0002844151EA2F10102F1DC30BD202A04DB30
:1008B000203A00FA02F1002070479140C2F1200373
:1008C00020FA03F3194390407047202A04DB203AB2
:1008D00021FA02F00021704721FA02F3D040C2F160
:1008E00020029140084319467047202A06DBCB17A7
:1008F000203A41FA02F043EAE07306E041FA02F3DB
:10090000D040C2F1200291400843194670472DE9BA
:10091000F04791460F4680460446002614F8015BD6
:100920002DB100F0CBF80068405DC007F6D12B2D4B
:1009300002D02D2D18D0641E4A463946204600F0BC
:10094000C1F827B13968A14201D1C7F8008071050B
:100950004FF002040BD54042002803DD03F064FE93
:100960000460A007BDE8F08746F48066E4E700284D
:10097000F8DA03F059FE04606FF00040F2E710B5BA
:10098000141E73F1000408DA401C41F100019218B2
:100990005B411A4301D120F0010010BD2DE9F04D5B
:1009A00092469B4611B1B1FA81F202E0B0FA80F2B0
:1009B00020329046FFF77AFF04460F4640EA0A00CD
:1009C00041EA0B0153465A46084313D0114653EAF5
:1009D000010019D0C8F140025046FFF776FF0546E6
:1009E0000E46504659464246FFF760FF084305D081
:1009F000012004E020463946BDE8F08D0020054383
:100A000046EAE0762C4337430A986305E40AA0EBF4
:100A100008000022FD0A44EA47540A3002D50020AB
:100A20000146E9E7010510196941DDE908450019AA
:100A30006941BDE8F04DA2E770B521F000430343E2
:100A40000CD0C1F30A550024D5EB040564EB040374
:100A5000D617AD1AB34102DB0020014670BD201845
:100A600041EB025170BDC1F30A52C1F3130140F2D0
:100A7000FF3341F480119A4202DA002001467047A8
:100A800040F233439A42A2F2334202DC5242FFF771
:100A90001CBFFFF70BBF0000064C074D06E0E068E7
:100AA00040F0010394E8070098471034AC42F6D3B5
:100AB000FFF776FBE0AE000800AF00080048704783
:100AC00094AE00082DE9F05F8246007800271546B5
:100AD0008B460AF10104B946302801D09DB113E0DC
:100AE00014F8010B0127782803D0582801D045B10C
:100AF0000AE00DB1102D07D10027102514F8010BC5
:100B000002E0082500E00A250026B0460EE005FBBD
:100B1000080005FB06F1012701EB10461FFA80F8DB
:100B2000B6F5803F00D3B94614F8010B294600F012
:100B300069F80028EBDABBF1000F05D00FB1641E95
:100B400000E05446CBF80040B9F1000F06D003F0A6
:100B50006BFD02210160C81EBDE8F09F48EA064017
:100B6000FAE72DE9F04D00231A461B1A8A4103DBF0
:100B700000200146BDE8F08DC1F30A52C1F3130114
:100B800041F480154FF0000BD10702D100186D41E0
:100B9000521E0027044640F2FF11384601EB620A5C
:100BA0003E468046024600204FF48011FFF78DFE3E
:100BB000C2197141BB1846EB0100B4EB030C75EB95
:100BC000000C04D3E41A65EB000517460E46241901
:100BD00008F101006D4180463428E3DDF91946EB48
:100BE0000600091BA84103D24FF0FF32134601E073
:100BF000002213461BEB070046EB0A51BDE8F04DFF
:100C0000FFF7BDBE3A2800D2303820F02002412A3A
:100C100001D3A2F13700884201D34FF0FF30704773
:100C200070B506460F480D464468606A02E0817858
:100C300019B1406A0028FAD104E018B10670457075
:100C400070BD0446606A0028FBD1282006F054FEDF
:100C50000028F5D006704570002181704162606205
:100C600070BD00000000002010B501784FF6FF7243
:100C7000407802EA0121084480B2FFF78CFD9FED25
:100C8000051B53EC112BFFF706FDFFF7B0FD80B2FB
:100C900010BD0000333333333333F33F08B54FF027
:100CA000FF310246009102234621024800F03CFE3B
:100CB00008BD00001404002001B582B04FF0FF30E1
:100CC0000090012302AA4621014800F025FF0EBD35
:100CD00014040020FEE700004FF48071014800F08A
:100CE0004CBD00000000024008B507F075FD02464B
:100CF0004FF0FF300090034800230121006807F007
:100D000035FF08BD3000002008B54FF0FF300090DF
:100D1000074800231A460321006807F027FFBDE8B3
:100D2000084000224FF48071024800F02EBD000000
:100D3000300000200000024070B5054609A105F012
:100D4000E5F8044609A1284605F0E0F8002C08D093
:100D5000002806D0227D017DBDE870401046FFF7D7
:100D60005FBF70BD686F7572000000006D696E0036
:100D700010B509A105F0CAF800280CD04069012877
:100D800005D0002807D1BDE81040FFF7BDBFBDE882
:100D90001040FFF7A9BF10BD7374617465000000B7
:100DA00070B5054616A105F0B1F8040027D016A1CC
:100DB000284605F0ABF8002821D062694169501E31
:100DC00004281CD200291ADB012918DC1048012A4A
:100DD0000BD0022A0DD0032A0ED0042A0FD1CAB29A
:100DE0000121BDE8704000F0D0BCCAB24FF4806170
:100DF000F7E7CAB20421F4E7CAB20221F1E770BDF5
:100E000077686963680000007374617465000000AE
:100E10000004024070B50EA105F078F8040016D069
:100E20000CA12069FFF7EBFA0B4D60B10BA1206913
:100E3000FFF7E5FA48B10AA12069FFF7E0FA0028B8
:100E400005D1032002E0012000E00220287070BDDF
:100E500074616200310000002000002032000000B8
:100E60003300000070B50BA105F050F8002810D039
:100E70000A4C45694FF0FF31206807F051FB0848E4
:100E800000231A4645602068BDE87040194607F007
:100E90009BB970BD74696D650000000028000020DA
:100EA0004C00002070B50024164D04E0012000F035
:100EB000BCF8641CA4B20821284600F059FC10B10B
:100EC000642CF3D30EE0642C0CD204E0012000F07B
:100ED000ACF8641CA4B20821284600F049FC18B103
:100EE000642C04D3022070BD642CEFD3FAE71E20DB
:100EF00000F09BF80821284600F03AFC0028F2D0C8
:100F0000012070BD0004024070B500200446400678
:100F1000050EFFF7C7FF641C2843E4B2082CF6D384
:100F200070BD000070B5044600F04AF800F01EF8ED
:100F3000002819D15FF00005FFF7E6FF60556D1C32
:100F4000EDB2052DF8D320786178E2780844A178D5
:100F5000114408442179884206D0002001462154DA
:100F6000401CC0B20528FAD370BD000070B5002443
:100F7000124D04E0012000F058F8641CA4B20821CE
:100F8000284600F0F5FB10B1642CF3D30FE0642C7D
:100F90000DD2002404E0012000F047F8641CA4B244
:100FA0000821284600F0E4FB18B1642C04D301208A
:100FB00070BD642CEFD3FAE7002070BD000402403E
:100FC00010B5094C00220821204600F0DEFB142059
:100FD00000F0CCFA01220821204600F0D6FBBDE843
:100FE00010401E2000F021B80004024010B50C4C47
:100FF0004FF0FF31A06807F093FA4FF40051094811
:1010000000F0BBFB04F12C004168491C4160002347
:10101000A068BDE810401A46194607F0D5B8000090
:101020002000002000080240704770B54FF0E02318
:101030009969642250435D6900229C698C42FCD00E
:1010400002D2A1EB040102E0A5EB040631440A44FC
:10105000824201D22146F0E770BD000030B5A1B058
:101060000C46054680216846FFF7ADF923462A461F
:101070000CA1684603F09CFA684600F091F942F230
:1010800010710DA000F054F920B100F039F90120E1
:1010900021B030BD00F034F908A003F079FA002047
:1010A000F6E7000041542B43574A41503D22257337
:1010B000222C2225732200004F4B0000434F4E4E3E
:1010C0004543542057494649204641494C555245CD
:1010D0000D0A0000F0B5A1B00E4607461C461546A5
:1010E00080216846FFF76FF923462A4619A1684612
:1010F00003F05EFA684600F053F941F2883120A00F
:1011000000F016F910B100F0FBF804E000F0F8F878
:101110001CA003F03DFA80216846FFF754F93346DE
:101120003A461EA1684603F043FA684600F038F9D3
:1011300042F210711FA000F0FBF820B100F0E0F8BF
:10114000012021B0F0BD00F0DBF81CA003F020FA74
:101150000020F6E741542B4D51545455534552430A
:1011600046473D302C312C2230303031222C222584
:1011700073222C222573222C302C302C222022008A
:101180004F4B0000434F4E464947204D5154542089
:1011900046414C4C5552450D0A00000041542B4D20
:1011A000515454434F4E4E3D302C222573222C2552
:1011B000642C31004F4B0D0A00000000434F4E4E8F
:1011C000454354204D5154542046414C4C555245B2
:1011D0000D0A000070B5144D4FF4805400222146D2
:1011E000284600F0D2FA142000F0C0F9012221466E
:1011F000284600F0CAFA142000F0B8F94FF4FA7447
:1012000021460AA000F094F84FF4E13000F0E0F835
:10121000214609A000F08CF809A000F0C1F8BDE853
:10122000704000F06DB80000000402406373756DFB
:1012300020307864650D0A0072656164790D0A00DA
:10124000415445300000000030B5C1B00C460546A1
:101250004FF480716846FFF7B6F823462A4604A18A
:10126000684603F0A5F9684600F09AF841B030BD31
:1012700041542B4D5154545055423D302C2225732E
:10128000222C222573222C302C30000010B5A0B067
:10129000044680216846FFF796F822460CA168466E
:1012A00003F086F9684600F07BF84FF47A710DA0E0
:1012B00000F03EF820B100F023F8012020B010BD6E
:1012C00000F01EF809A003F063F90020F6E7000023
:1012D00041542B4D5154545355423D302C222573CB
:1012E000222C30004F4B0D0A000000004D51545489
:1012F0005355422046414C4C5552450D0A000000C2
:1013000010B5074907A003F043F9084900200880F9
:10131000BDE810404FF400710148FFF754B80000D9
:101320001401002025730D0A0000000008000020B1
:101330002DE9F8430F46814600F02CFADFF854807F
:10134000154E0546002400BF00F024FA401BB842A9
:1013500002D30020BDE8F8830A23012269460F4822
:1013600001F0E6FB0328EFD030889DF8001008F864
:101370000010401C308019F80400884208D1641C19
:10138000E4B24846FFF734F8A042DDD10120E1E79E
:101390000024D9E71401002008000020B004002038
:1013A00070B50446FFF724F882B24FF0FF352B46A4
:1013B0002146054801F015FC2B46BDE8704002228D
:1013C00002A1014801F00DBCB00400200D0A00008C
:1013D0000849074AC1E90020002088600C22C86043
:1013E000C1E904028861C861084601F011BB000030
:1013F00000440040B004002072B6FEE708B50020AB
:10140000114C471E04F12C064FF4AF7800902020B9
:10141000FFF752FC962004F072FE6846FFF73EFC90
:101420006846FFF721FC05463946A06807F078F8C2
:10143000002375801A461946A06806F0C5FE40468E
:1014400004F05DFEE3E70000200000201CB5002052
:10145000114C0090461E04F12C054FF4FA770190D0
:1014600006F050FD6846FFF75DFD07F0D3FA314600
:10147000A06807F055F89DF8020028709DF800005C
:10148000002368701A461946A06806F09DFE38468B
:1014900004F035FEE4E700002000002048B1002100
:1014A0005FF00A02B0FBF2F0491C0028FAD1C8B282
:1014B0007047012070472DE9F0410446876D00F028
:1014C00069F9064694F835000025022806D08020E8
:1014D000606584F834500120BDE8F081206801681F
:1014E00021F0160101602068416921F0800141610D
:1014F000206C08B9A06C20B12068016821F00801B7
:1015000001602068016821F0010101600CE000F039
:1015100041F9801B052807D920206065032084F845
:10152000350084F83450D7E720680068C007EED152
:1015300094F85C103F208840B860012084F83500A2
:1015400084F834500020C7E790F83510022903D002
:101550008021416501207047052180F83510006821
:10156000016821F0010101600020704770B5044658
:1015700000F010F90546601C02D0044800780444CD
:1015800000F008F9401BA042FAD370BD7C00002097
:101590002DE9F84FDFF8B8A10022012403254FF010
:1015A0000F090AF1040BAAF1040E00BF0B6804FA3C
:1015B00002F63340B34273D10F7907F00307012FCE
:1015C00001D0022F16D187684FEA420805FA08FCBD
:1015D00027EA0C07D1F80CC00CFA08FC4CEA070CFF
:1015E000C0F808C04768B7430E79C6F300169640A6
:1015F0003E4346600E79F643B6070DD0C7685600E5
:1016000005FA06FC27EA0C07D1F808C00CFA06FC1C
:101610004CEA070CC0F80CC00E7906F00306022E47
:1016200010D1D60800EB8608D8F8206057074FEA9B
:10163000D76C09FA0CF7BE430F6907FA0CF737436A
:10164000C8F8207006684FEA420C05FA0CF7BE4352
:101650000F7907F0030707FA0CF7374307604E6866
:1016600016F4403F6DD03B4E376847F480473760F3
:10167000366822F0030706F480460096364E07EBE4
:10168000060CDCF8086897073F0F09FA07F826EA06
:101690000806DFF8C880404503D14FF000081EE07F
:1016A0004FE0DFF8BC80404502D14FF0010816E062
:1016B000DFF8B080404502D14FF002080FE0DFF8BC
:1016C000A880404502D14FF0030808E0DFF89C8075
:1016D000404502D14FF0040801E04FF0070808FA36
:1016E00007F848EA0608CCF80888DAF80060574698
:1016F000D1F804C09E435FEACC2C00D51E433E6067
:10170000DBF800605F46D1F804C09E435FEA8C2C92
:1017100000D51E433E60DEF800607746D1F804C075
:101720009E435FEA8C3C00D51E433E60084F083F55
:101730003E68D1F804C09E435FEACC3C00D51E430E
:101740003E60521C102AFFF431AFBDE8F88F000054
:10175000083C014044380240003001400000024093
:101760000004024000080240000C02400010024049
:101770000069084000D001207047426921EA020355
:101780000A4043EA0241816170470AB181617047B2
:101790000904FBE701488068704700007C000020D6
:1017A00070B5040025D094F83D00002520B984F8D8
:1017B0003C50204600F0DEFA242084F83D002068EA
:1017C000016821F0010101602068016841F40041D5
:1017D00001602068016821F40041016000F084FC90
:1017E0004D4A6168914201D84C4900E04C49884219
:1017F00001D2012070BD4B492368B0FBF1F15E6856
:1018000026F03F060E435E606368934206D94FF4AC
:10181000967359434FF47A73B1FBF3F12368491C73
:101820001E6A26F03F06314319626168914210D862
:101830004900401EB0FBF1F2521CC2F30B02042A15
:1018400001D2042022E0B0FBF1F0401CC0F30B00F9
:101850001CE0A268F2B301EBC10303EB0116431EC7
:10186000B3FBF6F35B1C43F480431B0549D092B3F2
:1018700001EBC10202EB0111401EB0FBF1F0401C74
:10188000C0F30B0040F4804040F400402168CA6976
:101890004CF6FF739A431043C861D4E90710014323
:1018A0002068026822F0C00211430160D4E90301FC
:1018B00001432068826848F2FF339A4311438160F4
:1018C000D4E9050108432168CA6822F0FF021043E9
:1018D000C86001E00EE016E02068016841F00101F7
:1018E00001602564202084F83D00256384F83E5083
:1018F000002070BD01EB4106431EB3FBF6F35B1CF9
:10190000B3E70120C2E701EB4101401EB0FBF1F05B
:10191000401CC0F30B00B7E7A086010080841E00C6
:1019200000093D0040420F002DE9F84F1F46904648
:101930008A460446DDF82890FFF72CFF054694F808
:101940003D00202871D119230122704920460095BD
:1019500001F0F4FA0028F5D194F83C00012864D095
:10196000012084F83C0020680168C90703D10168A0
:1019700041F0010101602068016821F4006101600B
:10198000222084F83D00102084F83E0000262664C2
:10199000C4F824806785608D20855D48E0622B4611
:1019A0004A465146204601F085F9002876D1208D1F
:1019B000584F68B1012814D002282068016816D059
:1019C00041F48061016020684169806900908EE087
:1019D0002068416981690091016841F400710160EA
:1019E00085E02068016821F480610160F0E721F45E
:1019F000806101602068016841F40061E2E703282A
:101A000046D801280AD0022810D04B460022394679
:101A10002046009501F092FAC8BB25E02A464946C7
:101A2000204601F031FB90BB54E06CE04B460022B5
:101A300039462046009501F081FA40BB20680168D4
:101A400041F40071016020680069616A0870606A91
:101A5000401C6062218D491E2185618D491E618572
:101A600021680969017039E02068016821F480610A
:101A7000016020680069616A0870606A401C6062E9
:101A8000208D401E2085608D401E6085CEE705E0DC
:101A90002A464946204601F0F7FA10B10120BDE878
:101AA000F88F20680069616A0870606A401C606293
:101AB000208D401E81B22185608D401E608520688A
:101AC0004269D243520712D4032903D1016821F499
:101AD0008061016020680069616A0870606A401C6A
:101AE0006062208D401E2085608D401E6085208DA7
:101AF000002884D1202084F83D0084F83E6084F8DA
:101B00003C600020CBE70220C9E700000200100083
:101B10000000FFFF040001002DE9F84F1F4690462A
:101B20008A460446DDF82890FFF734FE054694F80F
:101B30003D0020287FD119230122404920460095ED
:101B400001F0FCF9002876D194F83C00012872D00D
:101B5000012084F83C0020680168C90703D10168AE
:101B600041F0010101602068016821F40061016019
:101B7000212084F83D00102084F83E0000262664D1
:101B8000C4F824806785608D20852D48E0622B464F
:101B90004A465146204601F003F990B92068416950
:101BA0008069009036E02A464946204601F0A4FAB2
:101BB00050B1206C042804D12068016841F4007100
:101BC00001600120BDE8F88F606A21680078086133
:101BD000606A401C6062618D491E6185218D491ECD
:101BE00089B2218522685369DB435B070BD451B16D
:101BF00000781061606A401C6062608D401E6085E4
:101C0000208D401E20852A464946204601F06AF96B
:101C10000028CED1208D0028C5D154F83D0B016895
:101C200041F400710160202004F81E09E677667710
:101C30000020C7E7FFE70220C4E700000200100011
:101C40000000FFFF2DE9FF4F83B09A46DDE91197B1
:101C500093460446DDF84080FFF79CFD054694F866
:101C60003D0020287FD119230122404920460095BC
:101C700001F064F9002876D194F83C00012872D074
:101C8000012084F83C0020680168C90703D101687D
:101C900041F0010101602068016821F400610160E8
:101CA000212084F83D00402084F83E000026266470
:101CB000C4F82480A4F82A90608D20852C48E06226
:101CC000CDE9007553465A462046049901F0B6F80E
:101CD00070B930E02A463946204601F00DFA58B175
:101CE000206C042804D12068016841F4007101606F
:101CF000012007B0BDE8F08F606A216800780861B4
:101D0000606A401C6062218D491E89B22185628D06
:101D1000521E628522685369DB435B070BD469B1AD
:101D200000781061606A401C6062208D401E208532
:101D3000608D401E6085208D0028CBD12A46394613
:101D4000204601F0CFF80028CAD154F83D0B0168B5
:101D500041F400710160202004F81E09E6776677DF
:101D60000020C6E7FFE70220C3E7000002001000E2
:101D70000000FFFF10B586B0044614216846FEF748
:101D800022FB14492068884221D1134800210268AF
:101D900042F002020260006800F0020005904FF479
:101DA000407000901220CDE901010320039004202F
:101DB000049069460948FFF7EBFB074810300168BB
:101DC00041F400110160006800F40010059006B0B5
:101DD00010BD0000005400403038024000040240B2
:101DE0000248816802781144816070477C000020BD
:101DF0000B4810B5016841F400710160016841F4BD
:101E000080610160016841F480710160032000F08D
:101E10009FF80F2000F006F800F050F8002010BDE9
:101E2000003C024030B50546204887B000240168D8
:101E300041F001010160006806A900F00100009076
:101E400001A800F031F90498B0B100F04DF940005C
:101E500017494FF08042B0FBF1F11648491E02606D
:101E600040F2E732C0E90324C0E90114846100F0C4
:101E700045FB040003D015E000F036F9E8E70D4813
:101E800000F06AFB04000DD11C2000F033F8102D87
:101E900007D2002229461C2000F03AF806480560C7
:101EA00000E0012407B0204630BD00004038024069
:101EB00040420F00F8040020800000200C4882B04F
:101EC000016841F480410160006800F480400090A6
:101ED0000748001F016841F080510160006800223E
:101EE00000F0805000900F21901E02B000F010B85A
:101EF00044380240002809DB00F01F020121914014
:101F00004009800000F1E020C0F800117047000097
:101F1000F0B40E4B1B680C46C3F30223C3F1070554
:101F2000042D00D90425191D072901D2002300E042
:101F3000DB1E012606FA05F1491E214099409E400C
:101F4000761E16403143F0BC02F05EBB0CED00E0A3
:101F5000064900F0070208684FF6FF03184040EA00
:101F60000220034A10430860704700000CED00E0B7
:101F70000000FA052DE9F0470E46050065D0DFF8B0
:101F80001481D8F80000F7B200F00700B04207D281
:101F900088F80070D8F8000000F00700B04254D173
:101FA00028683D4C810712D5400703D5206840F4CE
:101FB000E05020602878000703D5206840F4604096
:101FC00020602068A96820F0F0000843206028788D
:101FD000C0072DD0304968680839012812D002287E
:101FE00013D0032811D00968890700292DDA216848
:101FF00021F0030101432160FFF7CCFB814641F250
:10200000883A0EE009688903EFE709688901ECE77F
:10201000FFF7C0FBA0EB0901514502D90320BDE841
:10202000F0872068696800F00C00B0EB810FEFD1F9
:10203000D8F80010404601F00701B14207D90770F7
:10204000006800F00700B04201D00120E7E72878DF
:10205000400705D52068E96820F4E0500843206077
:102060002878000706D52068296920F4604040EAF6
:10207000C100206000F058F82168084AC1F303113C
:10208000515CC8400649086006480068FFF7CAFE70
:102090000020C4E7003C02400838024057AD000869
:1020A00088000020800000200F2202600C4A136884
:1020B00003F003034360136803F0F00383601368C5
:1020C00003F4E053C36012684FF4E05303EAD20212
:1020D00002610448006800F00700086070470000D3
:1020E00008380240003C024004480549006809687D
:1020F000044AC1F38221515CC84070478800002027
:102100000838024067AD00080448054900680968BE
:10211000044AC1F34231515CC84070478800002036
:102120000838024067AD0008154810B5006810F087
:102130000C02144813D01449042A0FD0082A0ED1D7
:102140000F4C241F2268236802F03F025B0207D570
:102150002068C0F38810A0FB010106E0084610BD0E
:102160002168C1F38811A1FB00010023FEF790F85C
:102170002168C1F30141491C4900B0FBF1F010BDD9
:10218000083802400024F40040787D012DE9F84F22
:1021900004006ED02078DFF84C93C007A9F1040545
:1021A0004AD009F104000168C1F38101012908D076
:1021B0000068C0F3810002280AD1D9F8000040026B
:1021C00006D52868800337D560680028E1D033E061
:1021D0006068B0F5803F10D0B0F5A02F286810D00F
:1021E00020F480302860286820F48020286060680F
:1021F000A8B1FFF7CFFA06460DE0286840F480301A
:10220000F4E740F480202860F7E700BFFFF7C2FA48
:10221000801B642873D828688003F7D50CE0FFF78B
:10222000B9FA064605E000BFFFF7B4FA801B642840
:10223000F0D828688003F7D42078DFF8AC828007D4
:102240004FF0000A3ED5A748001D016811F00C0FA1
:1022500008D00068C0F3810002280BD1D9F8000033
:10226000400207D42868800716D5E068012800D10D
:1022700012E033E1E068B8B10120C8F80000FFF7D0
:1022800089FA064605E000BFFFF784FA801B0228A2
:10229000C0D828688007F7D52868216920F0F800A1
:1022A00040EAC10028600DE0C8F800A0FFF772FA0C
:1022B000064604E0FFF76EFA801B02281FD8286844
:1022C0008007F7D42078000722D5864F87486169B8
:1022D000703771B101210160FFF75CFA064604E036
:1022E000FFF758FA801B022809D838688007F7D50D
:1022F0000EE0C0F800A0FFF74DFA064605E082E0C8
:10230000FFF748FA801B02287DD838688007F7D489
:102310002078400768D5DFF8CCB100270BF13C0BE3
:10232000DBF80000C0000BD4DBF8001041F0805156
:10233000CBF80010DBF80000012700F0805000907F
:102340006B4E3068C00510D4306840F48070306047
:10235000FFF720FA009005E0FFF71CFA0099401AF9
:10236000022850D83068C005F6D55E4EA0686C369D
:1023700001280FD00528306810D020F0010030600F
:10238000306820F004003060A068B8B1FFF702FAAE
:1023900000900FE0306840F00100F4E740F00400E6
:1023A0003060F7E7FFF7F6F90099411A41F28830FB
:1023B000814266D830688007F4D50EE0FFF7EAF96D
:1023C000009007E0FFF7E6F90099411A41F28830E2
:1023D000814256D830688007F4D42FB1DBF8001062
:1023E00021F08051CBF80010A069C8B33D49091D08
:1023F0000968C1F3810102294AD00228504607D05A
:10240000C8F8600000E03CE0FFF7C4F904463BE098
:102410004746C8F86000FFF7BDF9064605E000BF73
:10242000FFF7B8F9801B02282BD828688001F7D461
:10243000D4E907010843A16A2E4A490802EB014189
:10244000626A41EA8211084394F82C1040EA016163
:10245000C9F8001001203866FFF79CF9044606E031
:102460003EE000BFFFF796F9001B022809D8286854
:102470008001F7D534E000BFFFF78CF9001B02287C
:1024800002D90320BDE8F88F28688001F4D427E042
:102490000128F7D0D9F80000E26900F480019142E8
:1024A0001CD1226A00F03F01914217D147F6C0715A
:1024B000626A0140B1EB821F10D1A26A4FF0FF3374
:1024C00000F4403103EB5202B1EB024F06D194F815
:1024D0002C1000F07060B0EB016F01D00120D1E74B
:1024E0000020CFE70438024000004742800E4742F8
:1024F000007000400000FFFF7047704710B50400F7
:1025000003D094F83D0010B107E0012010BD002079
:1025100084F83C00204600F01EF8022084F83D00BC
:10252000211D206801F0CEFD012084F8460084F8CA
:102530003E0084F83F0084F8400084F8410084F8AD
:10254000420084F8430084F8440084F8450084F88D
:102550003D00002010BD704790F83D10012901D0CA
:1025600001207047022180F83D100168CA6842F0DE
:102570000102CA6000680E4988420ED0B0F1804F57
:102580000BD00C49884208D00B49884205D00B4932
:10259000884202D00A49884204D1816801F00701CB
:1025A000062903D0016841F0010101600020704755
:1025B000000001400004004000080040000C004002
:1025C0000040014070472DE9F04104460068C668AC
:1025D00005694FF00007A90713D5B10711D5F91EFA
:1025E000016101202077206880698007204602D0A1
:1025F000FFF7E8FF04E000F07EF8204600F07CF8EA
:102600002777680716D5700714D521686FF0040086
:102610000861022020772068806910F4407F2046FE
:1026200002D0FFF7CFFF04E000F065F8204600F08D
:1026300063F82777280715D5300713D521686FF081
:1026400008000861042020772068C06980072046C0
:1026500002D0FFF7B7FF04E000F04DF8204600F08D
:102660004BF82777E80616D5F00614D521686FF0E9
:1026700010000861082020772068C06910F4407FAE
:10268000204602D0FFF79EFF04E000F034F8204619
:1026900000F032F82777E80708D0F00706D0216865
:1026A0006FF001000861204600F027F8280608D5E1
:1026B000300606D521686FF0800008612046FFF7DC
:1026C0001BFF680608D5700606D521686FF040002C
:1026D0000861204600F018F8A8060AD5B00608D50B
:1026E00021686FF0200008612046BDE8F041FFF747
:1026F00004BFBDE8F081704770470068B0F1804FBB
:1027000001D1FFF76DBB7047704718B5034690F8CD
:102710004200202801D0022018BD61B15AB1012029
:10272000186300205863184601F034FE0028F3D1E6
:10273000196B012901D0012018BD19680A68496880
:10274000009119680C3151E8002F42F0100241E865
:102750000024002CF5D118BD10B50C490CA001F0D7
:1027600017FF0A48FDF744FE1E280DD30A48002330
:102770001A460649006805F0D7FDBDE810404FF441
:1027800080710248FDF71FBE10BD00001403002039
:1027900025730D0A0000000024000020704700008F
:1027A000F8B5016804460868CA684B6910F00F0F55
:1027B0004FF0000559D003F0010602F4907737433B
:1027C00065D0C10705D0D10503D5616C41F0010189
:1027D0006164410705D5D90703D0616C41F002015E
:1027E0006164810705D5D90703D0616C41F004010C
:1027F0006164010707D502F02001314303D0616C09
:1028000041F008016164616C00293AD0800604D56A
:10281000900602D5204601F0D6FC20684069616C24
:10282000C0F38010090700D460B3204601F0A4FC77
:1028300020684069400621D52068143050E8001F08
:1028400021F0400140E80012002AF5D1E06BA8B168
:102850006E490165E06BFEF777FE002811D0E06B52
:10286000016D01B0BDE8F040084783060FD593061F
:102870000DD52046BDE8F84001F0A5BC2046FFF785
:102880008DFFF8BD2046FFF789FF6564F8BD266B14
:102890002023012E7DD1C6067BD5D60679D50868C2
:1028A0004868009048694FF00206400641D5E16B48
:1028B000086840680004000CE8D0A28D8242E5D987
:1028C000E085C869B0F5807F2DD020680C3050E8D5
:1028D000001F21F4807140E80012002AF5D1206821
:1028E000143050E8001F21F0010140E80012002AD6
:1028F000F5D12068143050E8001F21F0400140E875
:102900000012002AF5D184F84230256320680C308B
:1029100050E8001F21F0100140E80012002AF5D114
:10292000E06BFEF7C8FD6663A08DE18D401A81B2B1
:102930002AE0A08DE18D401A81B2E08D0028A5D05B
:102940000029A3D022680C3252E8000F20F49070C6
:1029500042E80007002FF5D12068143050E8002F1E
:1029600022F0010240E80027002FF5D184F8423020
:10297000256320680C3050E8002F22F0100240E858
:102980000023002BF5D166632046FFF7E5FEF8BD76
:10299000FFE705062BD5150629D594F84100212817
:1029A000F5D1A068B0F5805F01D12069B0B1206A8F
:1029B000411C2162216800784860E08C401E0004C0
:1029C000000CE084E3D12068C16821F08001C1607F
:1029D0002068C16841F04001C160D8E7206A0088E2
:1029E000C0F308004860206A801C2062E5E74006CA
:1029F000CDD55006CBD5CA68204622F04002CA6029
:102A000084F8413000F03DF9C1E700006941000859
:102A100070B5040004D094F84100002510B106E020
:102A2000012070BD84F84050204600F023F8242097
:102A300084F841002068C16821F40051C16020463B
:102A400001F022FC2068016921F4904101612068B5
:102A5000416921F02A0141612068C16841F40051B7
:102A6000C1606564202084F8410084F842006563F9
:102A7000002070BDF0B587B0044614216846FDF70C
:102A8000A2FC274F2368002226490224032507269B
:102A90002548BB421CD1234B14331F6847F0100755
:102AA0001F601B6803F0100305930B6843F00103DC
:102AB0000B60096802AB01F0010105916902CDE9E3
:102AC000001483E864006946FEF762FD07B0F0BDBC
:102AD000164FBB42FAD1134B10331F6847F400372F
:102AE0001F601B6803F4003305930B6843F0010378
:102AF0000B60096802AB01F0010105910C21CDE9E1
:102B0000001483E864006946FEF742FD00220621B6
:102B10002620FFF7FDF92620FFF7ECF9D6E70000A5
:102B200000100140303802400000024000440040E4
:102B30002DE9F84F044690F842009A4616460D4695
:102B4000202802D00220BDE8F88FB5B1AEB1002038
:102B50006064222184F842102063FEF71BFEA685E4
:102B60008146E685A0684FF480582027404501D172
:102B7000206920B12E46002529E00120E3E7002648
:102B800025E04B46002220212046CDF800A001F090
:102B90001CFC18B184F842700320D4E726B1A06869
:102BA00040451AD038B108E020684068C0F30800FA
:102BB00025F8020B08E0206978B12068406800F031
:102BC0007F0000BF06F8010BE08D401EE085E08D20
:102BD0000028D6D184F84270B5E720684068F1E754
:102BE00070472DE9F843044690F841009846164690
:102BF0000D46202802D00220BDE8F88385B17EB1C1
:102C000000206064212084F84100FEF7C3FDA68403
:102C10008146E684A0682027B0F5805F02D003E0FB
:102C20000120E9E7206910B12E4600250EE00026BC
:102C30000CE08021204601F0C8FBA8B9C6B116F807
:102C4000010B21684860E08C401EE084E08C4B461C
:102C50004FF00002CDF800800028EAD14FF040018B
:102C6000204601F0B2FB40B184F841700320C3E775
:102C700035F8020BC0F30800E3E784F84170002048
:102C8000BAE77047FEE701684A69D24352050FD49C
:102C90006FF480624A61002140F8301F20224273A5
:102CA0008173026942F004020261017301207047DE
:102CB000002070472DE9F84F0446C06A1E4693462F
:102CC0000D4621680A6842F480620A60082807D02D
:102CD000012805D010F5803F02D0206B112804D1C7
:102CE0002068016841F4807101604FF001195B4672
:102CF000002249462046009600F020F94FF4007863
:102D000040B120680068C00501D5C4F840800320A8
:102D1000BDE8F88F2069DFF884A0B0F5804F0FD0B0
:102D20000620216800EAD51747F0F0000861334615
:102D30005A460AF10601204600F048F958BB03E064
:102D4000E8B240F001001CE02168E8B208613346B7
:102D50005A465146204600F039F9E0B920684169E9
:102D600081690091016841F4807101605B46002235
:102D700049462046009600F0E1F80028C1D147F00E
:102D8000F1002168086133465A465146204600F05A
:102D90001DF90028BCD00120BAE7000002000100A4
:102DA000F8B50446C06A1E460D461746082807D0E7
:102DB000012805D010F5803F02D0206B122804D1E5
:102DC0002068016841F480710160134600224FF0D1
:102DD00001112046009600F0B1F840B1206800686B
:102DE000C00502D54FF4007020640320F8BD2069AF
:102DF000B0F5804F0ED00620216800EAD51040F0D3
:102E0000F000086133463A460B49204600F0DEF8F0
:102E100078B902E005F0FE0000E0E8B22168086140
:102E2000054933463A46891F204600F0CFF800286E
:102E3000DCD00120F8BD0000080001002DE9F843B6
:102E4000044600680D46DDE9089701689846164675
:102E500041F4807101604B4600224FF00111204681
:102E6000009700F06BF848B120680068C00502D5F3
:102E70004FF4007020640320BDE8F883216805F05A
:102E8000FE0008613B464A461549204600F09EF880
:102E900088B920684169806900903A4649462046D1
:102EA00000F02AF948B1206C042804D12068016898
:102EB00041F4007101600120DEE7F5B2B8F1010FC5
:102EC00009D02168300A08613A464946204600F098
:102ED00013F90028E7D1206805610020CCE7000045
:102EE0000200010070B516460D4604461EE020465D
:102EF000FFF7C9FE08B1012070BD681C16D0FEF7AF
:102F000049FC801BA84200D885B920684069C043AD
:102F100040070BD5002044F8300F20216173A073C7
:102F2000216941F0200121612073E4E720684069B4
:102F3000C0434007DBD4002070BD00002DE9F047FE
:102F4000984617460D460446C1F30746DDF8209023
:102F50002AE000BFB8F1FF3F26D0FEF71BFCA0EB34
:102F60000901414502D8B8F1000F1DD12068012E9A
:102F700016D0806925EA00000004000C12D0002061
:102F8000B84211D1002044F8300F20216173A073A2
:102F9000216941F02001216120730120BDE8F08703
:102FA0004069E7E70120EBE72068012E0AD080693D
:102FB00025EA00000004000C06D00020B842C9D069
:102FC0000020EBE74069F3E70120F7E72DE9F04740
:102FD000984616460D4604464FF000094FF0200A69
:102FE000C1F3074723E020684069C043400515D47A
:102FF0002068016841F40071016021686FF480600D
:103000004861C4F8309084F83DA084F83E90216C6B
:1030100041F00401216484F83C9021E0701C06D04A
:10302000FEF7B8FBA0EB0800B04203D816B1012FA1
:103030001FD021E02068012F15D0806925EA00000B
:103040000004000C18D000BF44F8309F84F80DA095
:1030500084F80E90216941F02001216184F80C90E0
:103060000120BDE8F087406925EA00000004000C5B
:10307000EAD12068406901E02068806925EA000003
:103080000004000CAFD1ECE72DE9F041002590469B
:103090000E460446202728E04069C043C0060CD4F1
:1030A00054F8301B6FF01000486144F810596777EE
:1030B000A577206A2062257714E0FEF76BFBA0EB72
:1030C0000800B04200D886B920684069C043400675
:1030D0000BD544F8305F6773A573206940F020007A
:1030E000206125730120BDE8F08120684169C94352
:1030F0004906D1D40020F6E770B516460D460446C1
:103100001EE02046FFF7BFFD08B1012070BD681C1E
:1031100016D0FEF73FFB801BA84200D885B9206877
:103120004069C04300060BD5002044F8300F202131
:103130006173A073216941F0200121612073E4E7EC
:1031400020684069C0430006DBD4002070BD000049
:1031500010B5282004F0D0FB03490028486001D0B6
:103160000021416210BD00000000002010B5084C95
:1031700010212046FEF7FCFA08B1002010BD1021F6
:103180002046FEF7F5FA0028F9D0012010BD000016
:103190000000024038B51148406800F5E140009059
:1031A0006846FDF7ADF80E49037A027991F90000FF
:1031B000904201D1002038BDFF200870486808E027
:1031C00004789C4205D14478944202D10A700120CF
:1031D00038BD406A0028F3D138BD00004C00002003
:1031E000000000200C4808B5406800F5E140009060
:1031F0006846FDF785F8017A02790848406807E0DB
:1032000003788B4204D14378934201D0012008BD5A
:10321000406A0028F4D108BD4C00002000000020C6
:10322000074A526801E093782BB1526A002AFAD11A
:1032300002700A70704713780370507808707047F6
:10324000000000203EB503220021012004F024FFED
:10325000154C00231A461946A06004F0B5FF012062
:1032600001901248009001AB01224FF47A7110A036
:1032700005F032FCE060022002900F48012200902D
:1032800002AB11460DA005F027FC206100224FF48F
:103290008071052004F000FF60600A4A00210A489E
:1032A00002F068FFA0623EBD20000020ED0F000884
:1032B0006461746100000000D90C000842757A7ADC
:1032C00065720000888C0008053E00082DE9F04773
:1032D00086B014216846FDF776F83448002401686A
:1032E00041F004010160016801F0040105910168E9
:1032F00041F001010160016801F0010105910168DF
:1033000041F0020101600068DFF8A48000F00200D3
:103310004FF400550590002229464046FEF735FA45
:10332000DFF890A041F20746002231465046FEF7F2
:103330002CFADFF884906F11002239464846FEF7D8
:1033400024FA012208215046FEF71FFA00950125B4
:10335000CDE90154694640460394FEF719F9F0207F
:10336000CDE90004694648460294FEF711F900963B
:10337000CDE90154694650460394FEF709F90097D8
:10338000CDE90154694648460394FEF701F9082047
:1033900000901120CDE901050220039069465046B6
:1033A000FEF7F6F806B0BDE8F087000030380240BE
:1033B0000008024000040240000002400D4810B521
:1033C0000B4901600C49416000214FF4804281604B
:1033D000C0E9031241618161C1610162FEF7E0F958
:1033E000002803D0BDE81040FEF706B810BD00006D
:1033F0000054004014040020801A06000C4810B548
:103400000A4901604FF4E1314160002181600C22E2
:10341000C160C0E904128161C161FFF7F9FA0028B7
:1034200003D0BDE81040FDF7E7BF10BD001001401C
:10343000680400200C4810B50A4901600B4941603E
:10344000002181600C22C160C0E904128161C16168
:10345000FFF7DEFA002803D0BDE81040FDF7CCBF2F
:1034600010BD000000440040B00400208024010092
:10347000FEE7FEE770B5002404F1B000C0B200F032
:10348000EFF9002000F0ECF9102000F0E9F9002538
:10349000002000F0F7F96D1CEDB2802DF8D3641C0C
:1034A000E4B2082CE8D370BD10B5B030C0B200F063
:1034B000D7F9002000F0D4F9102000F0D1F9002451
:1034C000002000F0DFF9641CE4B2802CF8D310BDBA
:1034D00010B5C820FEF74AF8BDE8104001F03EB82C
:1034E00010B50446812000F0BBF9642C08D3653C7C
:1034F000632C07D3012D03D0022D03D0FF2002E05F
:103500000F2000E08F20BDE8104000F0A9B910B5F1
:103510000446B031C8B200F0A3F9102040EA1410FC
:1035200000F09EF904F00F00BDE8104000F098B9DB
:103530002DE9F041203A00240D468046D6B27F287E
:1035400003D900208D1C8046EDB2282B14D0202BEF
:103550006AD0102B29467BD0FFF7D9FF644906EBD0
:10356000460001EB4005285D00F08CF9641CE4B2D4
:10357000062CF8D3BDE8F0812946FFF7C8FF06EB1B
:10358000C60000EB06175B4E04EB8700305C00F0D2
:1035900079F9641CE4B2142CF6D3681CC1B240461D
:1035A000FFF7B5FF5FF0000404EB87003044007DB7
:1035B00000F068F9641CE4B2142CF5D3A81CC1B265
:1035C0004046FFF7A4FF002404EB8700304490F846
:1035D000280000F057F9641CE4B2142CF4D3E81C62
:1035E000C1B24046FFF793FF5FF0000404EB870091
:1035F000304490F83C0000F045F9641CE4B2142C0F
:10360000F4D32D1DE9B24046FFF781FF5FF00004BF
:1036100004EB8700304490F8500000F033F9641C4C
:10362000E4B2142CF4D3A5E72946FFF770FF324F1C
:1036300004EB8610385C00F025F9641CE4B2102C11
:10364000F6D3681CC1B24046FFF761FF002400E0DA
:103650002EE004EB86103844007C00F013F9641C63
:10366000E4B2102CF3D3A81CC1B24046FFF74FFFC1
:103670005FF0000404EB8610384490F8200000F05E
:1036800001F9641CE4B2102CF4D3ED1CE9B24046FD
:10369000FFF73DFF5FF0000404EB8610384490F81C
:1036A000300000F0EFF8641CE4B2102CF4D361E7B2
:1036B000FFF72DFF114F00BF04EB0610385C00F040
:1036C000E1F8641CE4B2082CF6D36D1CE9B2404664
:1036D000FFF71DFF5FF0000404EB06103844007A8A
:1036E00000F0D0F8641CE4B2082CF5D342E70000E7
:1036F000B38C0008CB940008579F0008DB8E0008AD
:103700002DE9F04115460E460746FFF700FF0E482B
:10371000002400EB8515285D00F0B4F8641CE4B2C9
:10372000102CF8D3761CF1B23846FFF7F0FE0024D7
:10373000281990F8200000F0A5F8641CE4B2102CC1
:10374000F6D3BDE8F081000057A60008FFF792FE0F
:10375000164D174E174CDFF860804FF0FF394FF4CD
:10376000FA7A4946286804F0DBFE002377881A4677
:103770001946286804F028FD3846FFF7B1FE207886
:10378000012804D0022805D0032806D00AE000F062
:103790000FFA04E000F08CF901E000F021F9217843
:1037A00088F80010504602F0AAFCDAE72800002052
:1037B0004C000020200000200C0000202DE9F05FCC
:1037C0000026DDF828901D4692468B4680463446FA
:1037D0004FEA590723E0281B401EC1B20A2002F01D
:1037E00086FCBAFBF0F00A21B0FBF1F201FB1200FB
:1037F00026B9691E8C4201DA38B101263030C2B2D6
:1038000007FB0480C0B24B4604E007FB0480C0B253
:103810004B4620225946FFF78BFE641CE4B2AC42B3
:10382000D9D3BDE8F09F2DE9F041984617460E46E2
:10383000044600250DE0434631462046FFF778FE5A
:103840000834E4B2782C02D90024B61CF6B26D1C00
:10385000EDB27A5D002AEED1BDE8F081FFF776BFC8
:1038600001B584B001214FF4807204A88DE80700EF
:103870000B46002278210248FEF7E4F905B000BDAE
:103880001404002001B584B001214FF4807204A813
:103890008DE807000B46402278210248FEF7D2F956
:1038A00005B000BD14040020F0B5C3B000250446E7
:1038B00040954FF4807168464195FCF784FD0FE018
:1038C0002C2800D16D1C022D02D0032D04D006E05F
:1038D0002C2804D1661C02E02C2800D1671C641C33
:1038E00020780028ECD1BA1B314640A8FCF752FDE5
:1038F00040A8FCF7AAFD024639466846FCF74AFD97
:10390000684602F01FFB05001DD01BA102F0FEFA65
:103910000446006919A1FCF772FDC0B119A1206924
:10392000FCF76DFDB8B119A12069FCF768FDB0B1D5
:1039300018A12069FCF763FDA8B118A12069FCF764
:103940005EFDA0B116E002F0BDFA43B0F0BD28461E
:10395000FDF760FA0EE02846FDF722FA0AE0284655
:10396000FDF706FA06E02846FDF77CFA02E0284655
:10397000FDF7E2F92846E6E7636D64006D656E7554
:10398000000000006C6967687400000062757A7A54
:10399000657200006461746100000000616C617216
:1039A0006D000000C0B04FF4807421466846FCF7FB
:1039B0000AFD0A4D4FF0FF3632466946686804F04A
:1039C00013FD6846FCF714FD0A2802D96846FFF784
:1039D0006BFF21466846FCF7F6FCEDE7200000206F
:1039E000FEB502A901A8FFF71BFC2F4E2F4F307820
:1039F000397888420BD0FFF73DFD1A220021302094
:103A0000FFF77EFE1B2200214820FFF779FE274D9D
:103A10009DF804200C3528242879904203D1307871
:103A2000397888421AD00A2A00940CD20123002245
:103A300003211020FFF7C2FE0123032100949DF80B
:103A40000420242002E0022303211020FFF7B6FE09
:103A500020233A2203213820FFF76AFD68799DF878
:103A60000820904203D130783978884214D00A2A4D
:103A700000940CD20123002203214C20FFF79EFE6C
:103A80000123032100949DF80820602002E0022316
:103A900003214C20FFF792FE9DF8040028719DF849
:103AA00008006871FEBD0000200000200C0000200E
:103AB0002DE9F84339483A4900780978884201D01D
:103AC000FFF7D8FC374C4FF0FF31206804F028FD99
:103AD000354800231A4690F8009090F801804688F7
:103AE0001946206804F070FB0024E006000E102345
:103AF0002D220421FFF71CFD641CE4B2102CF4D32A
:103B00003046FDF7CBFC254F05463F1D7888B04277
:103B10001DD000242046FFF7C7FC641CE4B2042C2F
:103B2000F8D3E9074FF02000C5F10801009001EB40
:103B3000D1704FEA600003D0082101EB001000E0D3
:103B40000001C0B22B4632460021FFF737FE182293
:103B500006210020FFF7D4FD102402234A46062147
:103B600012200094FFF72AFE0A2206212220FFF7E6
:103B7000C7FD192206213C20FFF7C2FD0223424661
:103B800006214E200094FFF719FE102307A20621FC
:103B90005F20FFF748FE7E80BDE8F8830C00002020
:103BA00020000020280000204C0000202552480062
:103BB0002DE9FF5F904C914D2078297888421FD0E5
:103BC000FFF758FC0B2200212020FFF799FD0C2263
:103BD00000213020FFF794FD0D2200214020FFF747
:103BE0008FFD0E2200215020FFF78AFD0F220221B7
:103BF0005020FFF785FD102202216020FFF780FD95
:103C00007F48406800F5E140039003A8FCF778FB8B
:103C1000818A4FF0100A01F26C7189B20291017C25
:103C2000491CC9B2019190F80CB0067A90F8049042
:103C300090F80080077E704802990C300088884216
:103C400003D12878217888420DD00423CDF800A034
:103C500002210020029AFFF7B1FD10232D2202213C
:103C60002020FFF765FC64480C3081780198814280
:103C700003D128782178884210D00198FDF70EFCF6
:103C80000346CDF800A002212820019AFFF796FDF7
:103C900010232D2202213820FFF74AFC56480C3011
:103CA000C178594503D12878217888420AD05846EE
:103CB000FDF7F4FB03465A4602214020CDF800A050
:103CC000FFF77CFDDFF830A10AF10C0A9AF8070033
:103CD000B84203D128782178884206D007F1100035
:103CE000C2B202217020FFF70BFD43484FF0200ABB
:103CF0000C300079B04203D12878217888421CD05A
:103D00000A2ECDF800A00CD2002201230421104677
:103D1000FFF754FD0123042132461020CDF800A006
:103D200003E00223324604210020FFF747FD202351
:103D30003A2204211846FFF7FBFB2F480C3041794B
:103D4000494503D128782178884217D0B9F10A0F64
:103D5000CDF800A00CD20123002204213020FFF76F
:103D60002DFD012304214A464020CDF800A003E0A8
:103D700002234A4604213020FFF720FD20782978CD
:103D8000884205D020233A2204215020FFF7D0FB9F
:103D900019480C308179414503D12878217888422F
:103DA00019D0B8F10A0F0ED2544601230022042183
:103DB0006020CDF800A0FFF701FD01230421424659
:103DC0007020009405E00223424604216020CDF8D3
:103DD00000A0FFF7F3FC084802990C30018001991C
:103DE000817080F803B0067180F8059080F8068035
:103DF000C771BDE8FF9F00000C00002020000020DC
:103E00004C00002008B5FFF763FBFFF733FB0021F0
:103E100010234AA20846FFF706FDFDF7DBF94BA188
:103E20004DA0FDF71BF94FF0100308B14FA200E0C1
:103E300051A202210020FFF7F6FC52A351A240F24A
:103E40005B7152A0FDF746F94FF0100308B153A281
:103E500000E055A204210020FFF7E5FC55A0FDF786
:103E600015FA4FF0100308B154A200E056A2062143
:103E70000020FFF7D8FC4FF47A7002F040F904F00C
:103E8000ABFC0246544C4FF0FF3000900023012160
:103E9000E06804F06BFE4FF4807250495048FEF722
:103EA00034FC504A0021504802F064F94D4A6061E8
:103EB000243200214D4802F05DF94A4AA06148329F
:103EC00000214B4802F056F9464AE0616C3200216D
:103ED000484802F04FF9434A206290320021464898
:103EE00002F048F901260025C4F82400FFF73EF946
:103EF00001280ED16078012806D02078401CC0B27D
:103F00002070042804D004E0FCF7FEFE657002E097
:103F10002670607830B9FFF73DF918B1FCF7E4FE80
:103F20006670E3E760780128E0D1FFF75BF90028CD
:103F3000DCD0FCF7E9FE6570D8E70000205354415F
:103F4000525420574F524B494E47000038383838AA
:103F50003838383800000000444153485541492D55
:103F60004A494E203533353300000000205749467A
:103F70004920304B00000000205749464920455257
:103F80005200000074657374000000003132312E5D
:103F90003139392E37332E3236000000204D51543E
:103FA0005420304B00000000204D51545420455205
:103FB0005200000030303031000000004D515454A8
:103FC00020535542204F4B004D51545420535542DD
:103FD0002045525200000000200000201403002061
:103FE000B0040020D48B0008A53900084D14000847
:103FF000FD1300085D3800084945000810B54FF072
:10400000E020006904F0DAFB012803D0BDE810408D
:1040100004F02CB810BD000030B593B030216846D4
:10402000FCF7D1F914210CA8FCF7CDF91C480024A9
:10403000016841F080510160006800F080501190EB
:104040001848016841F4404101600068022500F40D
:104050004040119001200390102004900095069597
:104060000820CDE907406420CDE9090504200B9024
:104070006846FEF78BF808B172B6FEE70F20CDE96F
:104080000C054FF48050CDE90E4003210CA810948C
:10409000FDF770FF002801D072B6FEE713B030BD07
:1040A00040380240007000400248016841F470014D
:1040B0000160704788ED00E00148FEF784BA000017
:1040C000F8040020F0B50268204B214C9F03214DDD
:1040D000214E984207D0B84205D0A04203D0A84252
:1040E00001D0B04204D122F0700C4A6842EA0C02BE
:1040F000984210D0B8420ED0A0420CD0A8420AD0AC
:10410000B04208D0154CA04205D0154CA04202D0B8
:10411000144CA04203D122F44074CA6822434C6973
:1041200022F08002224302608A68C2620A688262C8
:10413000984201D109690163012141610169C907FF
:1041400003D0016921F001010161F0BD00000140CF
:104150000004004000080040000C00400040014006
:10416000004401400048014010B5806B0021C1852A
:10417000C184FEF713FB10BD01680C3151E8002F1C
:1041800022F4907241E80023002BF5D1016814312C
:1041900051E8002F22F0010241E80023002BF5D165
:1041A000016B012909D101680C3151E8002F22F07F
:1041B000100241E80023002BF5D1202180F84210A5
:1041C00000210163704708B590F84210222901D000
:1041D000022008BD82684FF480539A4201D10169E0
:1041E00021B1816A9A421BD04AB10AE00268816A11
:1041F0005268C2F308020A80816A891C08E00269D9
:1042000072B10268526802F07F020A70816A491C2A
:104210008162C18D491E0904090CC18503D01BE0D0
:1042200002685268F1E70168CA6822F02002CA6099
:104230000168CA6822F48072CA6001684A6922F083
:1042400001024A61202180F8421000214163026B83
:10425000012A03D0FEF7C4FC002008BD01630168F9
:104260000C3151E8002F22F0100241E80023002B0E
:10427000F5D101680A68D20602D50A68496800913A
:10428000818DFEF769FAE7E770B5044600680169B9
:10429000E26821F44051114301612169A068E2699B
:1042A00008436169114308432168CA6849F20C63F5
:1042B0009A430243CA6020684169A26921F44071AF
:1042C0001143416131492068884202D03049884217
:1042D00002D1FDF719FF01E0FDF706FFE2690023B7
:1042E000192164253226B2F5004F626828D0A0FB60
:1042F0000101930F9200FBF7CBFF0146B0FBF5F0F5
:104300006FF01802504301EB800006EB0010B0FB89
:10431000F5F000F0F002B1FBF5F002EB0012B1FB9A
:10432000F5F06FF01803584301EB800006EB001026
:10433000B0FBF5F000F00F0021681044886070BDFC
:10434000A0FB010192185B41FBF7A2FF0146B0FB05
:10435000F5F00201B1FBF5F06FF01803584301EBE3
:10436000800006EBC000B0FBF5F000F0F80002EBB7
:104370004002B1FBF5F0584301EB800006EBC000B2
:10438000B0FBF5F000F00700D6E700000010014098
:104390000014014081628285C2850021416422218E
:1043A00080F84210016921B10168CA6842F4807244
:1043B000CA6001684A6942F001024A610068C16846
:1043C00041F02001C160002070472DE9F843984674
:1043D00017460D460446089E24E0701C22D0FDF7C7
:1043E000D9F9A0EB0800B0421AD8CEB12068C16854
:1043F000490717D5802D15D0402D13D00168C9432A
:1044000009070FD401680025406800902046FFF797
:10441000B3FE0820606484F840500120BDE8F883B2
:104420000320FBE72068006835EA000004D0002084
:10443000B842D2D00020F1E70120F9E710B50548D5
:10444000FEF7AEF9BDE810404FF480720249014812
:10445000FEF75BB9B004002014030020F0B52F4E26
:10446000C1B04FF0FF31306804F05AF82C480023F7
:104470001A464788057844781946306803F0A4FE48
:1044800001F018FD06463846FCF785F941EC100BA3
:1044900001F0F8FC024623A1304601F0DBFC28467F
:1044A000FCF779F941EC100B01F0ECFC02461FA17E
:1044B000304601F0CFFC2046FCF76DF941EC100BC3
:1044C00001F0E0FC02461BA1304601F0C3FC30467F
:1044D00001F06CFD054604464FF480716846FBF719
:1044E00072FF00206A465C2309E0222901D02C29B2
:1044F00002D113542178401C1154401C641C2178B3
:104500000029F2D111460DA0FCF79EFE304601F0C5
:10451000D9FC284603F05EFB41B0F0BD2800002026
:104520004C0000206C6967687400000074656D7051
:104530000000000068756D69000000003030303107
:1045400055706C6F616400004FF47A74FFF786FF5A
:10455000204601F0D4FDF9E7FEE70000FEB5002497
:10456000094F4FF4807501263819CDE90006012363
:104570000022782102950548FDF764FB641CE4B233
:104580001B2CF1D3FEBD00006000002014040020AD
:104590000FB4054B10B503A9044A029801F0B0F816
:1045A00010BC5DF814FB0000AD6000080C01002099
:1045B0000FB4084B10B504A902AA039801F0A0F8A3
:1045C000044602A9002001F032FC204610BC5DF830
:1045D00014FB00002F5E000803B40198410000980E
:1045E00050EAC12018BF04204A0D18BF40F0010056
:1045F00040F2FF72B2EB515F08BF40F002000128A9
:1046000008BF052002B070470907090E002804DB27
:1046100000F1E02080F80014704700F00F0000F176
:10462000E02080F8141D70470048704710010020FA
:104630002DED020B019820F0004001909DED000B44
:1046400002B07047000000002DE9F0412DED020B93
:104650009FED3D0B2DED028B9FED3D8BDDE902546F
:10466000C4F30A50A0F2FF36142E37DA002E18DAFF
:1046700053EC102B9DED020B51EC100BFBF7F2FEEF
:1046800053EC182BFCF7E4F857D2002CA4BF0024FD
:10469000254652DA24F00040284318BF2E4C4CD057
:1046A0001AE02E4820FA06F704EA070028431FD034
:1046B00053EC102B9DED020B51EC100BFBF7D2FECF
:1046C00053EC182BFCF7C4F837D2002C03DA4FF464
:1046D0008010F0400444BC4300252EE0332E07DC5C
:1046E000A6F114004FF0FF3121FA00F73D4206D148
:1046F0009DED020BBDEC028B02B0BDE8F08153ECE6
:10470000102B9DED020B51EC100BFBF74FFF53EC00
:10471000182BFCF79DF810D2002C0DDA142E08BFD0
:10472000641C09D0C6F13400012101FA00F02844CC
:10473000A84238BF641C0546BD43CDE902549DED37
:10474000020BD7E7000000009C7500883CE4377E30
:1047500000000000000000000000F0BFFFFF0F009D
:104760002DE9F04D2DED040B2DED0E8B96B0DDE90E
:104770002550279CDDF890A025F0004624F0004845
:10478000BAF1000F14BF0121002101EB4502FC49E1
:1047900053184A1093422AD3002814BF0123002340
:1047A00003EB44030B44F7498B4220D358EA000142
:1047B0009FEDF59B76D0DFF8D8B35D4503D1BAF114
:1047C000000F05D188E0BAF1000F08BF002100D02A
:1047D000012101EB450111F5001F08D8002814BF85
:1047E0000121002101EB440111F5001F0BD99DEDC2
:1047F000261B9DED240B16B0BDEC0E8B04B0BDE85E
:10480000F04D00F069BE0027002DBCBFE14988458E
:1048100021DAE1498845A8BF02271CDAC3451ADC22
:10482000DE4901EB2851142908DDC1F1340220FAD8
:1048300002F101FA02F282420DD108E058B9C1F149
:10484000140228FA02F101FA02F2424503D101F002
:104850000101C1F1020756EA0A0124D1002C22DA33
:10486000002D18BF022F01D0012F0AD0022000F026
:104870007FFE16B0BDEC0E8B04B0BDE8F04D00F02D
:1048800013BE022000F074FE00F00EFE51EC100B7F
:1048900081F0004141EC100B16B0BDEC0E8B04B062
:1048A000BDE8F08D18E09FEDBEAB9FEDBF8B0028FB
:1048B00071D1B848804522D105F1804010F58010B3
:1048C00008BFBAF1000F07D0B3450ADC002CA8BF1F
:1048D0009DED260BE0DA0DE0B0EE490AF0EE690A34
:1048E000DAE7002C06DA9DED260B51EC100B81F077
:1048F00000416FE0AE48784490ED000BCCE7D8451E
:104900004DD1002C48DA2EB186423AD1BAF1000FCF
:1049100042D126E0BAF1000F13D0022000F028FEA9
:1049200000F0F6FD8DED020B9DED240B8DED000BDF
:1049300010EE900A039961F31E0003909DED020BA7
:10494000AAE78DED02AB9DED240B1AEE901A10EE46
:10495000900A8DED000B61F31E0003909DED020B9C
:104960009AE78DED028B9DED240B18EE901A10EE58
:10497000900A8DED000B61F31E0003909DED020B7C
:104980008AE709DA9DED240B51EC190B53EC102B3F
:10499000FBF781FE1EE020E09DED240B7CE78642C4
:1049A0001BDAB4F1804F0DD0A4F10050B0F1FF50EC
:1049B00013D1002D11DB9DED240B51EC100B03F0F6
:1049C00035F807E09DED240B53EC102B51EC100B48
:1049D00000F0C2BC41EC100B5EE79DED240B51ECE6
:1049E000100B01F057FBBAF1000FCDE90E0142D1D7
:1049F0009FED710B46B3A6F1E040B0F17F600CD0A3
:104A00005E4538D1002D00DAA7B3022F0CBF01207C
:104A10004FF0FF30FBF7AEFEDCE7002D01DD002C90
:104A20000DDA002D01DD002C1FDB002D16DA002C25
:104A300014DB012F08BF9FED620B3FF42DAFB0EEEA
:104A40004A0AF0EE6A0A27E7022F18BF002D0CD0A1
:104A5000012F0AD1002DFFF61FAF06E0002DB8BFD1
:104A6000002C08DA012F3FF417AFB0EE480AF0EE41
:104A7000680A11E71BE0012000EBE57050EA07012E
:104A800015D0791EB0EE498AF0EE698A084308BF56
:104A90009FED4D8B4E480025804570DD4D494E48B9
:104AA000884514DDB0420DDB002C19DB2FE001201E
:104AB00000F05EFD16B0BDEC0E8B04B0BDE8F04D0D
:104AC00000F016BDB34502DC002C09DC1FE0864275
:104AD00002DA002C1BDA03E05E452BDD002C16DD2C
:104AE000022000F045FD00F013FD8DED020B53ECAC
:104AF0001A2B51EC180BFBF75CFDCDE90001039973
:104B0000019861F31E0003909DED020BC4E60220A4
:104B100000F02EFD00F00CFD10EE901A18EE900A39
:104B20008DED020B8DED008B61F31E0003909DED6A
:104B3000020BB1E69DED0E0B53EC192B51EC100B53
:104B4000FBF731FD9FED260BCDE9080153EC102B4F
:104B50009DED080B51EC100BFBF72BFD9FED221B7D
:104B600053EC112BFBF722FD9DED081B53EC112B91
:104B7000FBF71FFD9FED1E1B53EC112B3CE08CE05F
:104B8000FFFF1F00FFFF0F00000000000000F03FCC
:104B90000000F03F0000F07F0000404301FCFFFFF9
:104BA000000000000000F07F000000000000000096
:104BB0000E65000000000000000000000000008002
:104BC000000000000000F0FF000000000000F0BF47
:104BD0000000E0410000F043FFFFEF3F0000000055
:104BE000000000000000D03F555555555555D53FA4
:104BF000000000000000E03FFBF7D8FC9DED080B33
:104C000041EC1A0B53EC102B51EC100BFBF7D1FCC1
:104C100053EC1A2BFBF7CDFC41EC1A0B9FEDFE0B6E
:104C200053EC102B9DED080B51EC100BFBF7C1FC66
:104C300041EC1B0B9FEDFA0B51EC1A0B53EC102BB4
:104C4000FBF7B7FC41EC1A0B9FEDF70B53EC102B65
:104C50009DED080B51EC100BFBF7ABFC53EC1A2B42
:104C6000FBF7A1FC41EC1A0B51EC1B0B53EC1A2B7C
:104C7000FBF7F8FB0690CDE906519DED060B53ECD2
:104C80001B2B51EC100BFBF78EFC53EC1A2BFBF794
:104C90008DFC41EC100B00F0A1B90020B6F5801F8F
:104CA0000EDA9FEDE30B53EC102B9DED0E0B51EC48
:104CB000100BFBF77EFCCDE90E016FF034000E46C1
:104CC00000EB2650A0F2FF37C6F31300DA4940F09C
:104CD0007F6646F040568842D8BF002408DDD74999
:104CE0008142C8BF012403DC0024A6F580167F1C86
:104CF000D348784400EBC4000F9690ED00CB9DEDB7
:104D00000E0B53EC1C2B51EC100BFBF74CFC9DEDE8
:104D10000E0B41EC1B0B53EC1C2B51EC100BFBF757
:104D2000A1FB41EC100B51EC190B53EC102BFBF7D2
:104D3000B2FC41EC1D0B51EC1B0B53EC1D2BFBF794
:104D400038FC41EC1A0BBF488DED10AB7844109540
:104D500090ED000B4FF0005040EA660000EB8440FD
:104D60008DED080B00F5002009909DED080B53EC2C
:104D70001C2B51EC100BFBF716FC9DED0E1B53EC9E
:104D8000112BFBF713FC41EC100B53EC102B9DED9A
:104D9000100B51EC100BFBF70CFC9DED080B41ECDC
:104DA0001C0B53EC102B9DED100B51EC100BFBF773
:104DB00000FC53EC1B2BFBF7F9FB53EC1C2BFBF714
:104DC000F2FB53EC1D2BFBF7F4FB41EC1C0B53ECFB
:104DD0001A2B51EC1A0BFBF7ECFB41EC1B0B9A481E
:104DE0000621B0EE4B0AF0EE6B0A784400F0E0FAD0
:104DF000B0EE401AF0EE601AB0EE41DAF0EE61DA91
:104E000053EC1B2B51EC1B0BFBF7D3FB53EC1D2B73
:104E1000FBF7CFFB9DED100B41EC1B0B53EC1A2B5A
:104E200051EC100BFBF71EFB53EC1C2BFBF7C1FBEB
:104E300053EC1B2BFBF716FB9DED100B41EC1B0BF2
:104E400053EC102B51EC100BFBF7B3FB41EC1D0B9B
:104E50009FED7FEB53EC1E2BFBF704FB53EC1B2B5E
:104E6000FBF700FB0890CDE908519DED080B53ECD2
:104E70001E2B51EC100BFBF796FB53EC1D2BFBF795
:104E800092FB53EC1B2BFBF791FB9DED080B41ECC8
:104E90001D0B53EC102B9DED100B51EC100BFBF781
:104EA00088FB41EC1B0B53EC1A2B51EC1D0BFBF751
:104EB00080FB9DED080B41EC1A0B53EC102B51ECD1
:104EC0001C0BFBF776FB53EC1A2BFBF7CBFA41ECF0
:104ED0001A0B51EC1B0B53EC1A2BFBF7C3FA0C907B
:104EE000CDE90C519DED0C0B53EC1B2B51EC100B31
:104EF000FBF759FB53EC1A2BFBF758FB41EC1B0B50
:104F00009FED550B53EC102B9DED0C0B51EC100B42
:104F1000FBF74FFB41EC1A0B9FED510B51EC1B0BB8
:104F200053EC102BFBF745FB41EC1B0B9FED4E0B9D
:104F300053EC102B9DED0C0B51EC100BFBF739FBD8
:104F400053EC1B2BFBF78EFA41EC100B48487844CE
:104F500000EBC40090ED001B51EC100B53EC112B37
:104F6000FBF780FA41EC1B0B3846FBF703FCCDE95D
:104F7000080153EC1B2B51EC1A0BFBF773FA41ECB5
:104F8000100B3C48784400EBC40090ED00CB51EC92
:104F9000100B53EC1C2BFBF765FA9DED081B53EC33
:104FA000112BFBF75FFA0690CDE906519DED080B3A
:104FB00053EC102B9DED060B51EC100BFBF7F3FAA5
:104FC00053EC1C2BFBF7EFFA53EC1A2BFBF7EBFA25
:104FD00053EC1B2BFBF7EAFA41EC100B9DED261B63
:104FE00053EC102B8DED001B00959DED260B51EC25
:104FF000100BFBF7DEFA9DED000B41EC1A0B53ECA6
:10500000102B9DED260B51EC100BFBF7CCFA9DED10
:10501000061B53EC112B2FE0000000604715F73FF3
:10502000FE822B654715F73F44DF5DF80BAE543E1B
:1050300000000000000040438E9803007AB60B0089
:105040007A600000B8600000B25F0000000000005D
:105050000000000000000840000000E009C7EE3F2B
:10506000FD033ADC09C7EE3FF5015B14E02F3EBEBD
:105070003E5E0000F85D0000FBF79BFA53EC1A2B34
:10508000FBF7F0F99DED060B41EC1A0B53EC102BDE
:105090009DED000B51EC100BFBF78BFACDE90C01E9
:1050A0009DED0C0B51EC1A0B53EC102BFBF7DAF9BE
:1050B000CDE902010C46AA498C422FDB611A084354
:1050C00018D19DED0C0B53EC102B9DED020B51EC08
:1050D000100BFBF768FA41EC1B0B9FEDA30B51EC97
:1050E0001A0B53EC102BFBF7BDF953EC1B2BFBF702
:1050F000AFFB2DD2022000F03BFA00F009FA10EECF
:10510000901A18EE900A8DED020B8DED008B61F375
:105110001E0003909DED020BFFF7BEBB944A24F0E6
:105120000041914214D39349214408437FF4EFACEA
:105130009DED0C0B53EC102B9DED020B51EC100B65
:10514000FBF731FA53EC1A2BFBF782FB7FF6DFAC4F
:1051500024F000408849894A002601EB2051824210
:105160002BDA481C4FF4801121FA00F02044844AC5
:10517000C0F30A517A44A1F2FF3192ED000B814A4B
:105180008DED080BCA4020EA0202C0F3130040F480
:105190008010C1F1140120FA01F60992002CB8BF69
:1051A00076429DED080B53EC102B9DED0C0B51EC52
:1051B000100BFBF7F8F9CDE90C019DED0C0B51EC50
:1051C0001A0B53EC102BFBF74DF99FED6F0B08906A
:1051D000CDE9085153EC102B9DED080B51EC100B51
:1051E000FBF7E7F941EC1B0B9FED690B53EC102B20
:1051F0009DED080B51EC100BFBF7DBF99DED0C0B53
:1052000041EC1C0B53EC102B9DED080B51EC100BDB
:10521000FBF7C9F953EC1A2BFBF7C8F99FED5E1B9E
:1052200053EC112BFBF7C5F953EC1C2BFBF71AF9C8
:1052300041EC1A0B51EC1B0B53EC1A2BFBF712F938
:10524000CDE902019DED020B53EC1B2B51EC100B31
:10525000FBF7A9F953EC1A2BFBF7A8F99DED020B0C
:1052600041EC1A0B53EC102B51EC100BFBF7A1F98E
:10527000CDE908014A489DED080B0521784400F06E
:1052800097F89DED081B51EC100B53EC112BFBF71D
:1052900090F99DED021B53EC112BFBF787F9CDE93B
:1052A00006019DED020B53EC1A2B51EC100BFBF792
:1052B00080F953EC1A2BFBF7D5F89FED3B0B41EC33
:1052C0001A0B53EC102B9DED060B51EC100BFBF75A
:1052D0006AF99DED060B41EC1B0B53EC102B9DED79
:1052E000020B51EC100BFBF764F953EC1B2BFBF793
:1052F000D2F953EC1A2BFBF756F99DED021B53EC38
:10530000112BFBF750F953EC192BFBF74FF9CDE9B3
:10531000020101EB065001150029C8BF039015DCFE
:105320009DED020B324651EC100BFBF785FBFFF7AE
:1053300053F9042808BF00F0FBF832469DED020B3C
:1053400051EC100BFBF778FBCDE902019DED020B50
:1053500051EC180B53EC102BFBF72BF9FFF73ABB72
:105360000000904000000000FE822B654715973C2E
:1053700000CC904000346F3F01FCFFFF0000E03F95
:10538000905C0000FFFF0F0000000000432EE63F8E
:10539000396CA80C615C20BEEF39FAFE422EE63F64
:1053A000505B000000000000000000000000004012
:1053B00070B504462DED028B4D1E00EBC500B0EE1E
:1053C000408AF0EE608A90ED000B35F0060017D0B1
:1053D00053EC182B51EC100BFBF7EBF841EC100BD6
:1053E0006D1E04EBC50090ED001B51EC100B53EC4F
:1053F000112BFBF737F841EC100B35F00600E7D125
:10540000022D36D0042D1CD0062D1CBFBDEC028B06
:1054100070BD53EC182B51EC100BFBF7CAF894ED50
:105420000A1B53EC112BFBF71DF853EC182BFBF761
:10543000C0F894ED081B53EC112BFBF713F841EC6B
:10544000100B53EC182B51EC100BFBF7B2F894ED4A
:10545000061B53EC112BFBF705F853EC182BFBF74D
:10546000A8F894ED040B53EC102BFAF7FBFF41EC7A
:10547000100B53EC182B51EC100BFBF79AF894ED32
:10548000021B53EC112BFAF7EDFF53EC182BFBF733
:1054900090F894ED001B53EC112BFAF7E3FFBDECF1
:1054A000028B41EC100B70BD9FED070B10B553EC58
:1054B000102B9FED070B51EC100BFBF7ECF841ECB8
:1054C000100B10BD000000000000000000000000F4
:1054D000000000000000F03F10B553EC112B51EC20
:1054E000100BFAF7BFFF41EC100B10BD00000000DD
:1054F0009FED050B10B553EC102B51EC100BFBF787
:10550000CAF841EC100B10BD0000000000000000C4
:105510009FED050B10B553EC102B51EC100BFBF766
:1055200048F841EC100B10BD0000000000000070B6
:105530009FED050B10B553EC102B51EC100BFBF746
:1055400038F841EC100B10BD000000000000001006
:1055500002E008C8121F08C1002AFAD1704770473C
:10556000002001E001C1121F002AFBD1704700009A
:105570000149086070470000100100202DE9FF5F1D
:1055800082B00021DDE90430020DDDF840B00343B4
:1055900018D044F61050A2F2FF324243151411986D
:1055A00001281FD0A5EB0B00401C5FEA000A4FF05A
:1055B00000064E4FDFF83891B046504615D5CAF177
:1055C000000413E0119801244AA3012801D16FEAD5
:1055D0000B010298119AC0E90031C0E9024206B0FD
:1055E000BDE8F09FCBF10000DFE704460021404A10
:1055F000491842EB0450CDE9001012E0E00707D053
:1056000032463B4640464946FAF7D3FF8046894634
:1056100032463B4610461946FAF7CBFF06460F4680
:105620006410002CEAD1DDE90401DDE90023BAF1C0
:10563000000F06DAFAF7BDFF42464B46FAF7B9FF0C
:1056400005E0FBF728F842464B46FBF724F80446F2
:105650000E460022284BFBF7FBF803D84FF0FF3033
:10566000014607E00022254B20463146FAF7FAFEB4
:10567000FBF7F9F9102409E0002C0ADB0A220023C9
:10568000FAF706FE039B30321A55641E50EA0102F7
:10569000F2D1641C039AC4F111031444119A012A33
:1056A00003D0012208430DD10AE0084304D00020B2
:1056B0004FF0110B119072E7A3EB0B056D1E0DE07F
:1056C0005B4504DD4FF0000205F1010504E003DA5B
:1056D0004FF00002A5F10105002AECD002981199C3
:1056E000C0E90231C0E9004579E70000000014403C
:1056F0000000F03F300000000000F0430000E03FF9
:105700002DE9FF4F95B09B468946064600250FE2DE
:10571000252877D100242746F84A0121059400E086
:10572000044316F8013F203B01FA03F01042F7D181
:1057300030782A2811D06FF02F033078A0F1300292
:10574000092A16D8059A44F0020402EB820203EB00
:1057500042021044761C0590EFE759F8042B05929D
:10576000002A03DA504244F40054059044F0020445
:10577000761C30782E2816D116F8010F44F0040458
:105780002A280DD06FF02F023078A0F13003092BBA
:1057900009D807EB870302EB4303C718761CF3E72E
:1057A00059F8047B761C30786C280FD006DC4C2826
:1057B00017D068280DD06A2814D104E0742810D0BE
:1057C0007A280FD10DE044F400140AE044F4801468
:1057D00001E044F440147278824202D104F580144E
:1057E000761C761C307866280BD013DC582877D0CE
:1057F00009DC002875D04528F6D04628F4D0472883
:105800001AD19DE118E0632835D0642879D0652845
:1058100012D195E1702873D008DC6728F1D069288F
:105820006FD06E280DD06F2806D1B5E073282CD02C
:10583000752875D0782874D05A46179990476D1CF2
:1058400075E1C4F30250022809D003280DD0D9F81D
:10585000001004280DD00D6009F1040967E1D9F8A2
:105860000010EA17C1E90052F6E7D9F800100D80E0
:10587000F2E70D70F0E719F8041B8DF80010002016
:105880008DF80100EA46012003E059F804AB4FF01F
:10589000FF3061074FF0000102D40DE008F1010173
:1058A0008846B9420FDA8045F8DB1AF8081000295B
:1058B000F4D108E008F1010188468142FADB1AF8C8
:1058C00008100029F6D105985B46A0EB0807214691
:1058D0003846179A00F094FA284400EB080507E0D0
:1058E0004DE029E10DE01AF8010B5A46179990474F
:1058F000B8F10108F7D25B4621463846179A13E102
:1059000042E00A220092C4F302524FF0000A022A37
:1059100008D059F804CB032A4FEAEC710AD00DE005
:1059200029E02AE009F1070121F00702F2E802C1AB
:10593000914609E00FFA8CFC4FEAEC71042A03D17E
:105940004FFA8CFC4FEAEC71002907DA0A46002175
:10595000DCF1000C61EB02012D2202E0220504D5EE
:105960002B228DF80420012203E0E20701D020223F
:10597000F7E7904659E00A2102E010220DE01021DD
:105980004FF0000A00910BE010224FF0000A44F0A3
:1059900004040827009203E008224FF0000A009256
:1059A000C4F30252022A05D059F804CB0021032A7D
:1059B00008D009E009F1070121F00702F2E802C16D
:1059C000914605E01FFA8CFC042A01D10CF0FF0C73
:1059D0004FF00008220728D5702806D0009B83F0DE
:1059E000100353EA0A0305D00EE040228DF804208C
:1059F000012208E05CEA010206D030228DF8042082
:105A00008DF8050002229046009B83F0080353EABC
:105A10000A030AD15CEA010201D1620705D53022EE
:105A20008DF804204FF001087F1E582804D034A0C0
:105A300003900EA802900DE036A0F9E753466046A9
:105A4000009AFAF725FC84460398825C0298401E6F
:105A5000029002705CEA0100F0D1029806A9081ACF
:105A600000F1200A600702D524F4803400E0012709
:105A7000574502DDA7EB0A0000E0002000EB0A0119
:105A8000009005984144401A0590E00306D45B4617
:105A90002146179A059800F0B3F90544002706E05F
:105AA00001A85A46C05D179990476D1C7F1C474559
:105AB000F6DBE0030CD55B462146179A059800F00B
:105AC0009FF9054404E030205A46179990476D1C11
:105AD0000099481E00900029F5DC08E00298029920
